{
  "_format": "hh-sol-artifact-1",
  "contractName": "EKYCRegistry",
  "sourceName": "contracts/EKYCRegistry.sol",
  "abi": [
    {
      "inputs": [],
      "stateMutability": "nonpayable",
      "type": "constructor"
    },
    {
      "inputs": [
        {
          "internalType": "address",
          "name": "owner",
          "type": "address"
        }
      ],
      "name": "OwnableInvalidOwner",
      "type": "error"
    },
    {
      "inputs": [
        {
          "internalType": "address",
          "name": "account",
          "type": "address"
        }
      ],
      "name": "OwnableUnauthorizedAccount",
      "type": "error"
    },
    {
      "anonymous": false,
      "inputs": [
        {
          "indexed": true,
          "internalType": "address",
          "name": "previousOwner",
          "type": "address"
        },
        {
          "indexed": true,
          "internalType": "address",
          "name": "newOwner",
          "type": "address"
        }
      ],
      "name": "OwnershipTransferred",
      "type": "event"
    },
    {
      "anonymous": false,
      "inputs": [
        {
          "indexed": true,
          "internalType": "address",
          "name": "provider",
          "type": "address"
        },
        {
          "indexed": false,
          "internalType": "string",
          "name": "metadataURI",
          "type": "string"
        }
      ],
      "name": "ProviderMetadataUpdated",
      "type": "event"
    },
    {
      "anonymous": false,
      "inputs": [
        {
          "indexed": true,
          "internalType": "address",
          "name": "provider",
          "type": "address"
        },
        {
          "indexed": false,
          "internalType": "string",
          "name": "name",
          "type": "string"
        }
      ],
      "name": "ProviderRegistered",
      "type": "event"
    },
    {
      "anonymous": false,
      "inputs": [
        {
          "indexed": true,
          "internalType": "address",
          "name": "provider",
          "type": "address"
        },
        {
          "indexed": false,
          "internalType": "bool",
          "name": "isActive",
          "type": "bool"
        }
      ],
      "name": "ProviderStatusChanged",
      "type": "event"
    },
    {
      "inputs": [],
      "name": "getAllProviders",
      "outputs": [
        {
          "internalType": "address[]",
          "name": "",
          "type": "address[]"
        }
      ],
      "stateMutability": "view",
      "type": "function"
    },
    {
      "inputs": [],
      "name": "getProviderCount",
      "outputs": [
        {
          "internalType": "uint256",
          "name": "",
          "type": "uint256"
        }
      ],
      "stateMutability": "view",
      "type": "function"
    },
    {
      "inputs": [
        {
          "internalType": "address",
          "name": "provider",
          "type": "address"
        }
      ],
      "name": "getProviderDetails",
      "outputs": [
        {
          "internalType": "string",
          "name": "name",
          "type": "string"
        },
        {
          "internalType": "string",
          "name": "metadataURI",
          "type": "string"
        },
        {
          "internalType": "bool",
          "name": "isActive",
          "type": "bool"
        },
        {
          "internalType": "uint256",
          "name": "registrationTime",
          "type": "uint256"
        }
      ],
      "stateMutability": "view",
      "type": "function"
    },
    {
      "inputs": [
        {
          "internalType": "address",
          "name": "provider",
          "type": "address"
        }
      ],
      "name": "isProviderActive",
      "outputs": [
        {
          "internalType": "bool",
          "name": "",
          "type": "bool"
        }
      ],
      "stateMutability": "view",
      "type": "function"
    },
    {
      "inputs": [],
      "name": "owner",
      "outputs": [
        {
          "internalType": "address",
          "name": "",
          "type": "address"
        }
      ],
      "stateMutability": "view",
      "type": "function"
    },
    {
      "inputs": [
        {
          "internalType": "uint256",
          "name": "",
          "type": "uint256"
        }
      ],
      "name": "providerAddresses",
      "outputs": [
        {
          "internalType": "address",
          "name": "",
          "type": "address"
        }
      ],
      "stateMutability": "view",
      "type": "function"
    },
    {
      "inputs": [
        {
          "internalType": "address",
          "name": "",
          "type": "address"
        }
      ],
      "name": "providers",
      "outputs": [
        {
          "internalType": "string",
          "name": "name",
          "type": "string"
        },
        {
          "internalType": "string",
          "name": "metadataURI",
          "type": "string"
        },
        {
          "internalType": "bool",
          "name": "isActive",
          "type": "bool"
        },
        {
          "internalType": "uint256",
          "name": "registrationTime",
          "type": "uint256"
        }
      ],
      "stateMutability": "view",
      "type": "function"
    },
    {
      "inputs": [
        {
          "internalType": "address",
          "name": "provider",
          "type": "address"
        },
        {
          "internalType": "string",
          "name": "name",
          "type": "string"
        },
        {
          "internalType": "string",
          "name": "metadataURI",
          "type": "string"
        }
      ],
      "name": "registerProvider",
      "outputs": [],
      "stateMutability": "nonpayable",
      "type": "function"
    },
    {
      "inputs": [],
      "name": "renounceOwnership",
      "outputs": [],
      "stateMutability": "nonpayable",
      "type": "function"
    },
    {
      "inputs": [
        {
          "internalType": "address",
          "name": "provider",
          "type": "address"
        },
        {
          "internalType": "bool",
          "name": "isActive",
          "type": "bool"
        }
      ],
      "name": "setProviderStatus",
      "outputs": [],
      "stateMutability": "nonpayable",
      "type": "function"
    },
    {
      "inputs": [
        {
          "internalType": "address",
          "name": "newOwner",
          "type": "address"
        }
      ],
      "name": "transferOwnership",
      "outputs": [],
      "stateMutability": "nonpayable",
      "type": "function"
    },
    {
      "inputs": [
        {
          "internalType": "address",
          "name": "provider",
          "type": "address"
        },
        {
          "internalType": "string",
          "name": "metadataURI",
          "type": "string"
        }
      ],
      "name": "updateProviderMetadata",
      "outputs": [],
      "stateMutability": "nonpayable",
      "type": "function"
    }
  ],
  "bytecode": "0x608060405234801561001057600080fd5b50338061003757604051631e4fbdf760e01b81526000600482015260240160405180910390fd5b61004081610046565b50610096565b600080546001600160a01b038381166001600160a01b0319831681178455604051919092169283917f8be0079c531659141344cd1fd0a4f28419497f9722a3daafe3b4186f6b6457e09190a35050565b610f6e806100a56000396000f3fe608060405234801561001057600080fd5b50600436106100b45760003560e01c8063696724cb11610071578063696724cb1461015e578063715018a61461019d578063851b651a146101a55780638da5cb5b146101b8578063f2fde38b146101c9578063f4ac20ca146101dc57600080fd5b80630787bc27146100b957806308688457146100e55780633bb4497c146100fa57806346ce41751461010f5780635499557b14610120578063618dd9a814610133575b600080fd5b6100cc6100c7366004610a89565b6101ef565b6040516100dc9493929190610af1565b60405180910390f35b6100f86100f3366004610b2a565b61032b565b005b6101026103fc565b6040516100dc9190610b66565b6002546040519081526020016100dc565b6100f861012e366004610bfc565b61045e565b610146610141366004610c4f565b61058c565b6040516001600160a01b0390911681526020016100dc565b61018d61016c366004610a89565b6001600160a01b031660009081526001602052604090206002015460ff1690565b60405190151581526020016100dc565b6100f86105b6565b6100f86101b3366004610c68565b6105ca565b6000546001600160a01b0316610146565b6100f86101d7366004610a89565b61084e565b6100cc6101ea366004610a89565b61088c565b60016020526000908152604090208054819061020a90610ce9565b80601f016020809104026020016040519081016040528092919081815260200182805461023690610ce9565b80156102835780601f1061025857610100808354040283529160200191610283565b820191906000526020600020905b81548152906001019060200180831161026657829003601f168201915b50505050509080600101805461029890610ce9565b80601f01602080910402602001604051908101604052809291908181526020018280546102c490610ce9565b80156103115780601f106102e657610100808354040283529160200191610311565b820191906000526020600020905b8154815290600101906020018083116102f457829003601f168201915b505050506002830154600390930154919260ff1691905084565b6103336109f0565b6001600160a01b03821660009081526001602052604090206003015461039a5760405162461bcd60e51b8152602060048201526017602482015276141c9bdd9a59195c881b9bdd081c9959da5cdd195c9959604a1b60448201526064015b60405180910390fd5b6001600160a01b038216600081815260016020908152604091829020600201805460ff191685151590811790915591519182527fba12349dad88aafa71cd9c0327899dbede49c7e7bd250d37de3099a8053d91ec910160405180910390a25050565b6060600280548060200260200160405190810160405280929190818152602001828054801561045457602002820191906000526020600020905b81546001600160a01b03168152600190910190602001808311610436575b5050505050905090565b336001600160a01b038416148061047f57506000546001600160a01b031633145b6104ba5760405162461bcd60e51b815260206004820152600c60248201526b155b985d5d1a1bdc9a5e995960a21b6044820152606401610391565b6001600160a01b03831660009081526001602052604090206003015461051c5760405162461bcd60e51b8152602060048201526017602482015276141c9bdd9a59195c881b9bdd081c9959da5cdd195c9959604a1b6044820152606401610391565b6001600160a01b038316600090815260016020819052604090912001610543828483610d88565b50826001600160a01b03167f4d0be6ef58b1465776d118ec587140f3d82bc72c78ddca01176e831b4161611a838360405161057f929190610e49565b60405180910390a2505050565b6002818154811061059c57600080fd5b6000918252602090912001546001600160a01b0316905081565b6105be6109f0565b6105c86000610a1d565b565b6105d26109f0565b6001600160a01b0385166106285760405162461bcd60e51b815260206004820152601860248201527f496e76616c69642070726f7669646572206164647265737300000000000000006044820152606401610391565b8261066c5760405162461bcd60e51b81526020600482015260146024820152734e616d652063616e6e6f7420626520656d70747960601b6044820152606401610391565b6001600160a01b038516600090815260016020526040902060030154156106d55760405162461bcd60e51b815260206004820152601b60248201527f50726f766964657220616c7265616479207265676973746572656400000000006044820152606401610391565b604051806080016040528085858080601f016020809104026020016040519081016040528093929190818152602001838380828437600092019190915250505090825250604080516020601f8601819004810282018101909252848152918101919085908590819084018382808284376000920182905250938552505060016020808501829052426040958601526001600160a01b038b168452525020815181906107809082610e78565b50602082015160018201906107959082610e78565b506040828101516002838101805460ff19169215159290921790915560609093015160039092019190915581546001810183556000929092527f405787fa12a823e0f2b7631cc41b3ba8828b3321ca811111fa75cd3aa3bb5ace90910180546001600160a01b0319166001600160a01b03881690811790915590517fa00c17d90dc9545180b0d6f2e70cc74863ee2e01212b81d549aa3cb67150c9369061083f9087908790610e49565b60405180910390a25050505050565b6108566109f0565b6001600160a01b03811661088057604051631e4fbdf760e01b815260006004820152602401610391565b61088981610a1d565b50565b6001600160a01b03811660009081526001602081905260408220600281015460038201548254606095869590948594909384939284019260ff9092169184906108d490610ce9565b80601f016020809104026020016040519081016040528092919081815260200182805461090090610ce9565b801561094d5780601f106109225761010080835404028352916020019161094d565b820191906000526020600020905b81548152906001019060200180831161093057829003601f168201915b5050505050935082805461096090610ce9565b80601f016020809104026020016040519081016040528092919081815260200182805461098c90610ce9565b80156109d95780601f106109ae576101008083540402835291602001916109d9565b820191906000526020600020905b8154815290600101906020018083116109bc57829003601f168201915b505050505092509450945094509450509193509193565b6000546001600160a01b031633146105c85760405163118cdaa760e01b8152336004820152602401610391565b600080546001600160a01b038381166001600160a01b0319831681178455604051919092169283917f8be0079c531659141344cd1fd0a4f28419497f9722a3daafe3b4186f6b6457e09190a35050565b80356001600160a01b0381168114610a8457600080fd5b919050565b600060208284031215610a9b57600080fd5b610aa482610a6d565b9392505050565b6000815180845260005b81811015610ad157602081850181015186830182015201610ab5565b506000602082860101526020601f19601f83011685010191505092915050565b608081526000610b046080830187610aab565b8281036020840152610b168187610aab565b941515604084015250506060015292915050565b60008060408385031215610b3d57600080fd5b610b4683610a6d565b915060208301358015158114610b5b57600080fd5b809150509250929050565b6020808252825182820181905260009190848201906040850190845b81811015610ba75783516001600160a01b031683529284019291840191600101610b82565b50909695505050505050565b60008083601f840112610bc557600080fd5b50813567ffffffffffffffff811115610bdd57600080fd5b602083019150836020828501011115610bf557600080fd5b9250929050565b600080600060408486031215610c1157600080fd5b610c1a84610a6d565b9250602084013567ffffffffffffffff811115610c3657600080fd5b610c4286828701610bb3565b9497909650939450505050565b600060208284031215610c6157600080fd5b5035919050565b600080600080600060608688031215610c8057600080fd5b610c8986610a6d565b9450602086013567ffffffffffffffff80821115610ca657600080fd5b610cb289838a01610bb3565b90965094506040880135915080821115610ccb57600080fd5b50610cd888828901610bb3565b969995985093965092949392505050565b600181811c90821680610cfd57607f821691505b602082108103610d1d57634e487b7160e01b600052602260045260246000fd5b50919050565b634e487b7160e01b600052604160045260246000fd5b601f821115610d8357600081815260208120601f850160051c81016020861015610d605750805b601f850160051c820191505b81811015610d7f57828155600101610d6c565b5050505b505050565b67ffffffffffffffff831115610da057610da0610d23565b610db483610dae8354610ce9565b83610d39565b6000601f841160018114610de85760008515610dd05750838201355b600019600387901b1c1916600186901b178355610e42565b600083815260209020601f19861690835b82811015610e195786850135825560209485019460019092019101610df9565b5086821015610e365760001960f88860031b161c19848701351681555b505060018560011b0183555b5050505050565b60208152816020820152818360408301376000818301604090810191909152601f909201601f19160101919050565b815167ffffffffffffffff811115610e9257610e92610d23565b610ea681610ea08454610ce9565b84610d39565b602080601f831160018114610edb5760008415610ec35750858301515b600019600386901b1c1916600185901b178555610d7f565b600085815260208120601f198616915b82811015610f0a57888601518255948401946001909101908401610eeb565b5085821015610f285787850151600019600388901b60f8161c191681555b5050505050600190811b0190555056fea2646970667358221220eaf70fc5a09761406db35d8cbf9fe55d179495e6d925b7e357ce44bd2c0218b964736f6c63430008140033",
  "linkReferences": {},
  "deployedLinkReferences": {}
}